{
    "_format": "hh-sol-artifact-1",
    "contractName": "GHOPayGame",
    "sourceName": "contracts/Paygho.sol",
    "abi": [
        {
            "inputs": [
                {
                    "internalType": "address",
                    "name": "_airnodeRrp",
                    "type": "address"
                }
            ],
            "stateMutability": "nonpayable",
            "type": "constructor"
        },
        {
            "anonymous": false,
            "inputs": [
                {
                    "indexed": true,
                    "internalType": "address",
                    "name": "user",
                    "type": "address"
                },
                {
                    "indexed": false,
                    "internalType": "uint256",
                    "name": "reward",
                    "type": "uint256"
                }
            ],
            "name": "RewardClaimed",
            "type": "event"
        },
        {
            "anonymous": false,
            "inputs": [
                {
                    "indexed": true,
                    "internalType": "address",
                    "name": "user",
                    "type": "address"
                },
                {
                    "indexed": false,
                    "internalType": "uint256",
                    "name": "amount",
                    "type": "uint256"
                }
            ],
            "name": "TokensStaked",
            "type": "event"
        },
        {
            "inputs": [],
            "name": "GHO",
            "outputs": [
                {
                    "internalType": "contract IGhoToken",
                    "name": "",
                    "type": "address"
                }
            ],
            "stateMutability": "view",
            "type": "function"
        },
        {
            "inputs": [],
            "name": "airnode",
            "outputs": [
                {
                    "internalType": "address",
                    "name": "",
                    "type": "address"
                }
            ],
            "stateMutability": "view",
            "type": "function"
        },
        {
            "inputs": [],
            "name": "airnodeRrp",
            "outputs": [
                {
                    "internalType": "contract IAirnodeRrpV0",
                    "name": "",
                    "type": "address"
                }
            ],
            "stateMutability": "view",
            "type": "function"
        },
        {
            "inputs": [
                {
                    "internalType": "uint256",
                    "name": "",
                    "type": "uint256"
                }
            ],
            "name": "eachGame",
            "outputs": [
                {
                    "internalType": "bytes32",
                    "name": "requestId",
                    "type": "bytes32"
                },
                {
                    "internalType": "uint256",
                    "name": "randomNumber",
                    "type": "uint256"
                }
            ],
            "stateMutability": "view",
            "type": "function"
        },
        {
            "inputs": [],
            "name": "endpointIdUint256",
            "outputs": [
                {
                    "internalType": "bytes32",
                    "name": "",
                    "type": "bytes32"
                }
            ],
            "stateMutability": "view",
            "type": "function"
        },
        {
            "inputs": [
                {
                    "internalType": "bytes32",
                    "name": "requestId",
                    "type": "bytes32"
                },
                {
                    "internalType": "bytes",
                    "name": "data",
                    "type": "bytes"
                }
            ],
            "name": "fulfillUint256",
            "outputs": [],
            "stateMutability": "nonpayable",
            "type": "function"
        },
        {
            "inputs": [],
            "name": "game",
            "outputs": [
                {
                    "internalType": "uint256",
                    "name": "",
                    "type": "uint256"
                }
            ],
            "stateMutability": "view",
            "type": "function"
        },
        {
            "inputs": [],
            "name": "ghoToken",
            "outputs": [
                {
                    "internalType": "address",
                    "name": "",
                    "type": "address"
                }
            ],
            "stateMutability": "view",
            "type": "function"
        },
        {
            "inputs": [],
            "name": "lockTime",
            "outputs": [
                {
                    "internalType": "uint256",
                    "name": "",
                    "type": "uint256"
                }
            ],
            "stateMutability": "view",
            "type": "function"
        },
        {
            "inputs": [
                {
                    "internalType": "address",
                    "name": "",
                    "type": "address"
                }
            ],
            "name": "lockedUntil",
            "outputs": [
                {
                    "internalType": "uint256",
                    "name": "",
                    "type": "uint256"
                }
            ],
            "stateMutability": "view",
            "type": "function"
        },
        {
            "inputs": [],
            "name": "makeRequestUint256",
            "outputs": [],
            "stateMutability": "nonpayable",
            "type": "function"
        },
        {
            "inputs": [
                {
                    "internalType": "bytes32",
                    "name": "",
                    "type": "bytes32"
                }
            ],
            "name": "requestIdToGameId",
            "outputs": [
                {
                    "internalType": "uint256",
                    "name": "",
                    "type": "uint256"
                }
            ],
            "stateMutability": "view",
            "type": "function"
        },
        {
            "inputs": [],
            "name": "rewardRangeEnd",
            "outputs": [
                {
                    "internalType": "uint256",
                    "name": "",
                    "type": "uint256"
                }
            ],
            "stateMutability": "view",
            "type": "function"
        },
        {
            "inputs": [],
            "name": "rewardRangeStart",
            "outputs": [
                {
                    "internalType": "uint256",
                    "name": "",
                    "type": "uint256"
                }
            ],
            "stateMutability": "view",
            "type": "function"
        },
        {
            "inputs": [
                {
                    "internalType": "address",
                    "name": "",
                    "type": "address"
                }
            ],
            "name": "rewards",
            "outputs": [
                {
                    "internalType": "uint256",
                    "name": "",
                    "type": "uint256"
                }
            ],
            "stateMutability": "view",
            "type": "function"
        },
        {
            "inputs": [
                {
                    "internalType": "address",
                    "name": "_airnode",
                    "type": "address"
                },
                {
                    "internalType": "bytes32",
                    "name": "_endpointIdUint256",
                    "type": "bytes32"
                },
                {
                    "internalType": "address",
                    "name": "_sponsorWallet",
                    "type": "address"
                }
            ],
            "name": "setRequestParameters",
            "outputs": [],
            "stateMutability": "nonpayable",
            "type": "function"
        },
        {
            "inputs": [],
            "name": "sponsorWallet",
            "outputs": [
                {
                    "internalType": "address",
                    "name": "",
                    "type": "address"
                }
            ],
            "stateMutability": "view",
            "type": "function"
        },
        {
            "inputs": [
                {
                    "internalType": "address",
                    "name": "",
                    "type": "address"
                }
            ],
            "name": "stakedAmounts",
            "outputs": [
                {
                    "internalType": "uint256",
                    "name": "",
                    "type": "uint256"
                }
            ],
            "stateMutability": "view",
            "type": "function"
        },
        {
            "inputs": [
                {
                    "internalType": "address",
                    "name": "player",
                    "type": "address"
                },
                {
                    "internalType": "uint256",
                    "name": "amount",
                    "type": "uint256"
                },
                {
                    "internalType": "uint256",
                    "name": "gameid",
                    "type": "uint256"
                },
                {
                    "internalType": "uint256",
                    "name": "_ghoamount",
                    "type": "uint256"
                }
            ],
            "name": "startRound",
            "outputs": [],
            "stateMutability": "nonpayable",
            "type": "function"
        },
        {
            "inputs": [
                {
                    "internalType": "uint256",
                    "name": "gameId",
                    "type": "uint256"
                }
            ],
            "name": "withdrawRewards",
            "outputs": [],
            "stateMutability": "nonpayable",
            "type": "function"
        }
    ],
    "bytecode": "0x60c06040526001600a5534801561001557600080fd5b50604051610b2d380380610b2d833981016040819052610034916100bb565b6001600160a01b0381166080819052604051632b77c09f60e21b81523060048201526001602482015282919063addf027c90604401600060405180830381600087803b15801561008357600080fd5b505af1158015610097573d6000803e3d6000fd5b505073c4bf5cbdabe595361438f8c6a187bdc330539c6060a052506100eb92505050565b6000602082840312156100cd57600080fd5b81516001600160a01b03811681146100e457600080fd5b9392505050565b60805160a051610a0161012c600039600081816102e10152818161043501526106090152600081816102320152818161036401526106df0152610a016000f3fe608060405234801561001057600080fd5b506004361061012c5760003560e01c80639342c8f4116100ad578063c3fe3e2811610071578063c3fe3e2814610316578063c7c080001461031f578063d89bf30914610328578063dea12bad14610331578063eab214b71461033957600080fd5b80639342c8f4146102965780639bc289f1146102a9578063a36ff4d8146102c9578063b8d008f3146102dc578063bf90fb4e1461030357600080fd5b80633718d90a116100f45780633718d90a146101d25780635996db91146101e757806361d4eb5f1461021a57806371bab6661461022d5780637bdf25251461025457600080fd5b80630700037d1461013157806307b9fc57146101645780630d6680871461016d5780630dafae0f1461017657806310c1c103146101b2575b600080fd5b61015161013f3660046107f9565b60096020526000908152604090205481565b6040519081526020015b60405180910390f35b61015160025481565b61015160045481565b61019d61018436600461081b565b600b602052600090815260409020805460019091015482565b6040805192835260208301919091520161015b565b6101516101c03660046107f9565b60076020526000908152604090205481565b6101e56101e0366004610834565b610359565b005b61020273c4bf5cbdabe595361438f8c6a187bdc330539c6081565b6040516001600160a01b03909116815260200161015b565b6101e56102283660046108b0565b610413565b6102027f000000000000000000000000000000000000000000000000000000000000000081565b6101e56102623660046108e9565b600180546001600160a01b039485166001600160a01b03199182161790915560029290925560038054919093169116179055565b6101e56102a436600461081b565b61055d565b6101516102b73660046107f9565b60086020526000908152604090205481565b600154610202906001600160a01b031681565b6102027f000000000000000000000000000000000000000000000000000000000000000081565b600354610202906001600160a01b031681565b610151600a5481565b61015160055481565b61015160065481565b6101e561067c565b61015161034736600461081b565b60006020819052908152604090205481565b336001600160a01b037f000000000000000000000000000000000000000000000000000000000000000016146103ce5760405162461bcd60e51b8152602060048201526016602482015275043616c6c6572206e6f74204169726e6f6465205252560541b604482015260640160405180910390fd5b60006103dc8284018461081b565b6000858152602081905260409020549091506103fa6105dc83610925565b6000918252600b60205260409091206001015550505050565b6040516323b872dd60e01b8152336004820152306024820152604481018490527f00000000000000000000000000000000000000000000000000000000000000006001600160a01b0316906323b872dd906064016020604051808303816000875af1158015610486573d6000803e3d6000fd5b505050506040513d601f19601f820116820180604052508101906104aa9190610947565b506000828152600b6020526040902060028101546104e35760408051600081526020810191829052516104e1916002840191610763565b505b6001600160a01b038516600081815260038301602090815260408083208890556002850180546001818101835582865284862090910180546001600160a01b031916871790559484526004860190925290912084905554141561055657600a80549060006105508361097f565b91905055505b5050505050565b6000818152600b6020908152604080832060018101543385526004909101909252909120541015610679576000818152600b602090815260408083203384526003810183528184205460049091019092528220546105bb919061099a565b6000838152600b60209081526040808320338085526003909101909252918290206105dc9055905163a9059cbb60e01b81526004810191909152602481018290529091506001600160a01b037f0000000000000000000000000000000000000000000000000000000000000000169063a9059cbb906044016020604051808303816000875af1158015610652573d6000803e3d6000fd5b505050506040513d601f19601f820116820180604052508101906106769190610947565b50505b50565b600154600254600354604051636e6be03f60e01b81526001600160a01b0393841660048201526024810192909252306044830181905290831660648301526084820152631b8c6c8560e11b60a482015260e060c4820152600060e48201819052917f00000000000000000000000000000000000000000000000000000000000000001690636e6be03f90610104016020604051808303816000875af1158015610729573d6000803e3d6000fd5b505050506040513d601f19601f8201168201806040525081019061074d91906109b2565b600a546000918252602082905260409091205550565b8280548282559060005260206000209081019282156107b8579160200282015b828111156107b857825182546001600160a01b0319166001600160a01b03909116178255602090920191600190910190610783565b506107c49291506107c8565b5090565b5b808211156107c457600081556001016107c9565b80356001600160a01b03811681146107f457600080fd5b919050565b60006020828403121561080b57600080fd5b610814826107dd565b9392505050565b60006020828403121561082d57600080fd5b5035919050565b60008060006040848603121561084957600080fd5b83359250602084013567ffffffffffffffff8082111561086857600080fd5b818601915086601f83011261087c57600080fd5b81358181111561088b57600080fd5b87602082850101111561089d57600080fd5b6020830194508093505050509250925092565b600080600080608085870312156108c657600080fd5b6108cf856107dd565b966020860135965060408601359560600135945092505050565b6000806000606084860312156108fe57600080fd5b610907846107dd565b92506020840135915061091c604085016107dd565b90509250925092565b60008261094257634e487b7160e01b600052601260045260246000fd5b500690565b60006020828403121561095957600080fd5b8151801515811461081457600080fd5b634e487b7160e01b600052601160045260246000fd5b600060001982141561099357610993610969565b5060010190565b600082198211156109ad576109ad610969565b500190565b6000602082840312156109c457600080fd5b505191905056fea2646970667358221220be6deece7e5ff53e186da8ca3ba7e6d02569fbb690900095932382192dc7f48364736f6c634300080a0033",
    "linkReferences": {},
    "deployedLinkReferences": {}
}